:040000000128D32FD1
:100474006A22CD247424C22A0C148C140C148C14F7
:1004840022000C108C1008008C1021000C1021008C
:100494008C1421000C140800F40060228030202306
:1004A4007408202373082023462AA000F501F601CE
:1004B4007D08F8007C08F7002008172C21008C1414
:1004C4000C140032003221000C10003200320800FB
:1004D40022000C160030F3014E220430F3000130E8
:1004E4004E2222000C1208007A30210099009A0151
:1004F400980123008C0122008C010C3021008C0017
:1005040008001D1431303B009E00910192019301BB
:1005140094010F309600A0309500C0309B00080075
:10052400F401F501701C9A2A7208F4077308F53D6A
:10053400F235F30DF136F00C70087104031D942AA2
:100544007508F1007408F0000800FB01F91FB12AD6
:10055400F809F909F80A0319F90AFB01FB0A7808F2
:10056400F0007908F1008E30F201F3007B08F4000A
:100574007F237008F8007108F9007208FA00080077
:100584002000A001A101FF30F5000F30F600F701B3
:10059400F8012000200817242000A00A0319A10A4A
:1005A4002108803AFC0080307C02031DDB2A1030D5
:1005B400200203180800C52AA101A201FF30F5009A
:1005C4000F30F6007D08F8007C08F70020002108B1
:1005D40017242000A10A0319A20A2208803AA000C5
:1005E40080302002031DF82A10302102031808006D
:1005F400E02AFA01FB017608770403191B2BFC019E
:10060400FC0AF71B082BF635F70D022BFA35FB0D08
:1006140077087902031D102B76087802031C172B28
:100624007608F8027708F93B7A14F736F60CFC0BD7
:10063400082B7B08F7007A08F6000800F100F201A5
:1006440021008C107108F000720A292BF035890BF7
:10065400282BF01F302B21000C14322B21000C10FE
:1006640021008C14003200320830F20A7202031C9A
:10067400222B21008C100C140032003221008C1427
:100684000032003221000C1020000C0821000C1450
:10069400080000302102653003192002031C572B87
:1006A400FF30A0000F30A1006C2B6430F600F7017E
:1006B4002108F1002008F000FF30F2000F30F300B1
:1006C40092227108F9007008F800FB227708A10053
:1006D4007608A000FF30A2000F30A30020082202F9
:1006E400A4002108233BA50024083B00930020001C
:1006F40025083B0094009F17080073080319872BF3
:10070400720871047004031D8F2BF001F101F201D2
:100714000800F30AF236F10CF00CFE3072050319EE
:100724009D2B8B2BF30AF00A0319F10A0319F20A21
:10073400F236F10CF00CFF3072050319AA2B942B3E
:1007440002307302031CAC2BF303F035F10DF20DF0
:10075400F11FA22B731CF113F3367308F700F60193
:10076400F5017508F0047608F1047708F2047408BA
:10077400031DF217080010240310400D410DC7009B
:100784004708031DCA2BBB01BC01BD01BE01080003
:1007940010241730C136C00CBF0C890BCC2B3F087A
:1007A400C200BC17BD013B08C3003C08C4003D089F
:1007B400C5008E30C601C702C71FEC2B4708803A1C
:1007C4008F3E031CC52BC636C50CC40CC30CC70F07
:1007D400E52BF92B183047020318C52B47080319DA
:1007E400F92BC335C40DC50DC60DC703F02B420844
:1007F4000319072CC309C409C509C609C30A031987
:10080400C40A0319C50A0319C60A4608BE004508E6
:10081400BD004408BC004308BB0008003B08BF00FF
:100824003C08C0003D08C1000800FB0010307B02FA
:10083400031C1E2C0F30FB00F61F222CF501F601C1
:100844007608803AF90090307902031D2B2C003091
:100854007502031C312CFF30F5000F30F600F81F31
:10086400352CF701F8017808803AF90090307902C4
:10087400031D3E2C00307702FF30031C452CF7008B
:100884000F30F800FF30F9000F30FA0075087902D4
:10089400F50076087A3BF600FF30F9000F30FA00D5
:1008A40077087902F70078087A3BF8007508F300B6
:1008B4007B0809070907063E4E227608F3007B08E9
:1008C40009070907073E4E227708F3007B0809074A
:1008D4000907083E4E227808F3007B080907090738
:1008E400093E4E2A0C167D08803A2000C80080304C
:1008F4004802031D7F2C28307C020318842C2830E6
:10090400FC00FD017D08803A2000C80083304802C5
:10091400031D8E2CE9307C02031C912CCD24BC30A9
:100924002000A300BE30A4004530A5007D08F900D6
:100934007C08F800A7227808A0007908A1007A08AA
:10094400A200D2242008B2002108B3002208B40077
:100954008030AF01B000BF30B10032252F08BB009A
:100964003008BC003108BD00BD233B08C90010306D
:10097400F30000304E2220004908F300FE304E22DE
:100984008030F30000304E220430F30001304E2258
:1009940022000C120800E830FC000330FD000800BF
:1009A4002308A6002408A7002508A8000310270D83
:1009B400280DAD002D08031DE02C2E2D2008A600C7
:1009C4002108A7002208A8000310270D280DAE0057
:1009D4002E08031DEE2C2E2D8930AA01AB01AC018B
:1009E4002E07A600AD022508AE002208AE06803010
:1009F400AE051830A417A501A117A201A900AA35B4
:100A0400AB0DAC0D22082502031D0E2D2108240276
:100A1400031D0E2D20082302031C172D2008A302FA
:100A24002108A43B2208A53B2A14A335A40DA50D37
:100A3400A90B012D2A08F0002B08F1002C08F20064
:100A44002D08F3002E08F4007F237008A00071081D
:100A5400A1007208A2000800A001A101A2010800DF
:100A64002F08B5003008B6003108B7000310360D62
:100A7400370DBA003208B5003308B6003408B700A1
:100A84000310360D370DB9003A080319552D3908EE
:100A94003A02390803185D2DB5003A08B502193039
:100AA4003502031C5C2D3208AF003308B000340853
:100AB400B10008003908031908003A08390203187C
:100AC4006B2D3A08B5003908B50219303502031800
:100AD40008000630B800B11BB817B41B3817B0179C
:100AE400B101B317B40139083A020318902DB23595
:100AF400B30DB40DB90339083A0603198B2DB803A5
:100B04003808073903198B2D792DB136B00CAF0C89
:100B1400BA0A3A0839060319AA2D872D3A08390268
:100B24000318AA2DAF35B00DB10DBA0339083A0632
:100B34000319A62DB803380807390319A62D942DD7
:100B4400B436B30CB20CB90A3A083906031DA22D07
:100B5400B81FB52DFF30AF06B006B106AF0A0319B2
:100B6400B00A0319B10A381FBC2DDE250319B30AD4
:100B74000319B40AB8012F08B2073008B33D31088D
:100B8400B43DB41FCC2DDE250319B30A0319B40AEE
:100B9400B801B80A3208F0003308F1003408F20052
:100BA4003A08F3003808F4007F237008AF00710896
:100BB400B0007208B1000800FF30B206B306B406F4
:100BC400B20A080076223E228322CE274B233A2201
:100BD40020000C19252EA001A1014B233430200044
:100BE400CB00F130CA00CA0BF52DCB0BF52D00322A
:100BF40020000C19232E0C1DFD2D3430CB00F130B8
:100C0400CA00CA0B032ECB0B032E0032CE274B2374
:100C140020006208031D112EE201E20A232E620B5A
:100C2400152E02301E2E02306206033003191E2ECA
:100C340062060430031D202EE200232E62060319EF
:100C4400E201E101E10A610B142F6208031D452E44
:100C5400C222C3274B2334302000CB00F130CA001A
:100C6400CA0B322ECB0B322E00322000A001A10180
:100C74004B2334302000CB00F130CA00CA0B402E85
:100C8400CB0B402E00322000620B792EFF30FC008B
:100C94000730FD00DE222000CC01CD01C3274B2309
:100CA40034302000CB00F130CA00CA0B572ECB0BD6
:100CB400572E00322000A001A1014B233430200024
:100CC400CB00F130CA00CA0B652ECB0B652E003267
:100CD4002000CC0A0319CD0A4D08803ACA0080309E
:100CE4004A02031D772E02304C02031C502E0230A0
:100CF40020006206031DAF2E6530FC000E30FD009F
:100D0400DE222000CE01CF01C3274B233430200044
:100D1400CB00F130CA00CA0B8D2ECB0B8D2E0032C6
:100D24002000A001A1014B2334302000CB00F1307E
:100D3400CA00CA0B9B2ECB0B9B2E00322000CE0A7E
:100D44000319CF0A4F08803ACA0080304A02031DB3
:100D5400AD2E03304E02031C862E033020006206A3
:100D6400031DE22ED001D101C3274B2334302000D0
:100D7400CB00F130CA00CA0BBD2ECB0BBD2E003206
:100D84002000A001A1014B2334302000CB00F1301E
:100D9400CA00CA0BCB2ECB0BCB2E00322000D00ABC
:100DA4000319D10A5108803ACA0080304A02031D4F
:100DB400DD2E04305002031CB62E2000E601E60AA4
:100DC40004306206031D122FD201D301C3274B2323
:100DD40034302000CB00F130CA00CA0BEF2ECB0B0D
:100DE400EF2E00322000A001A1014B23343020005B
:100DF400CB00F130CA00CA0BFD2ECB0BFD2E003206
:100E04002000D20A0319D30A5308803ACA0080305A
:100E14004A02031D0F2F05305202031CE82EC22282
:100E24002000E10103306206031D6F2F6608031DD5
:100E34003F2FD501D60120000C1D3F2F5608FD0081
:100E44005508FC00DE2234302000CB00F130CA000B
:100E5400CA0B2A2FCB0B2A2F003280302000D50753
:100E64000318D60A5608803ACA0090304A02031D75
:100E74003D2F00305502031C1D2F2000660B672FE9
:100E84001030D701D80020000C1D672F5808FD0032
:100E94005708FC00DE2234302000CB00F130CA00B9
:100EA400CA0B522FCB0B522F003280302000D707B1
:100EB400031CD8035808803ACA0080304A02031D34
:100EC400652F013057020318452F20006608031DC3
:100ED4006E2FE601E60A6F2FE60104306206031D59
:100EE400EA2D6530FC000E30FD00C827572265301E
:100EF400FC000E30FD00BC2757222000D4010A302C
:100F040054020318932F3430CB00F130CA00CA0BBB
:100F1400892FCB0B892F003220000C1D932FD40A6C
:100F2400812FFC01FC0AFD01C8275722FC01FC0AA1
:100F3400FD01BC2757222000E30A6508031DA42FE6
:100F4400E40AA52FE403083063060319E3010A3019
:100F54006406031DB52F6508031DB52F0830E40092
:100F6400E501E50AEA2D6408031DEA2D650BEA2D67
:100F7400E501EA2D20006408A03E860087010108EF
:100F8400080050302000A000A10108006308593E69
:100F9400860087010108080032302000A000A1016A
:100FA40008000A30D9000830DA000930DB000A30C2
:100FB400DC000530DD000730DE000630DF000530E0
:100FC400E00021000430A0000330A1000230A200A0
:100FD4000130A3000F30A401A5000E30A6000D308F
:100FE400A7000C30A8000B30A9002000E101E201A9
:0C0FF400E301E401E501E6012000E42D2A
:020000040001F9
:04000E00A4F9FFFF53
:00000001FF
